{
  "contractName": "Election",
  "abi": [
    {
      "inputs": [],
      "payable": false,
      "stateMutability": "nonpayable",
      "type": "constructor"
    },
    {
      "constant": true,
      "inputs": [
        {
          "internalType": "uint256",
          "name": "",
          "type": "uint256"
        }
      ],
      "name": "candidates",
      "outputs": [
        {
          "internalType": "uint256",
          "name": "id",
          "type": "uint256"
        },
        {
          "internalType": "string",
          "name": "name",
          "type": "string"
        },
        {
          "internalType": "string",
          "name": "party",
          "type": "string"
        },
        {
          "internalType": "uint256",
          "name": "voteCount",
          "type": "uint256"
        }
      ],
      "payable": false,
      "stateMutability": "view",
      "type": "function"
    },
    {
      "constant": true,
      "inputs": [],
      "name": "candidatesCount",
      "outputs": [
        {
          "internalType": "uint256",
          "name": "",
          "type": "uint256"
        }
      ],
      "payable": false,
      "stateMutability": "view",
      "type": "function"
    }
  ],
  "bytecode": "0x608060405234801561001057600080fd5b5061008b6040518060400160405280600d81526020017f4e6172656e647261206d6f6469000000000000000000000000000000000000008152506040518060400160405280600381526020017f424a50000000000000000000000000000000000000000000000000000000000081525061018460201b60201c565b6101056040518060400160405280600c81526020017f526168756c2047616e64686900000000000000000000000000000000000000008152506040518060400160405280600881526020017f436f6e677265737300000000000000000000000000000000000000000000000081525061018460201b60201c565b61017f6040518060400160405280600f81526020017f417276696e64206b656a726977616c00000000000000000000000000000000008152506040518060400160405280600381526020017f414150000000000000000000000000000000000000000000000000000000000081525061018460201b60201c565b6102c8565b60016000815480929190600101919050555060405180608001604052806001548152602001838152602001828152602001600081525060008060015481526020019081526020016000206000820151816000015560208201518160010190805190602001906101f4929190610223565b506040820151816002019080519060200190610211929190610223565b50606082015181600301559050505050565b828054600181600116156101000203166002900490600052602060002090601f016020900481019282601f1061026457805160ff1916838001178555610292565b82800160010185558215610292579182015b82811115610291578251825591602001919060010190610276565b5b50905061029f91906102a3565b5090565b6102c591905b808211156102c15760008160009055506001016102a9565b5090565b90565b610315806102d76000396000f3fe608060405234801561001057600080fd5b50600436106100365760003560e01c80632d35a8a21461003b5780633477ee2e14610059575b600080fd5b61004361017a565b6040518082815260200191505060405180910390f35b6100856004803603602081101561006f57600080fd5b8101908080359060200190929190505050610180565b604051808581526020018060200180602001848152602001838103835286818151815260200191508051906020019080838360005b838110156100d55780820151818401526020810190506100ba565b50505050905090810190601f1680156101025780820380516001836020036101000a031916815260200191505b50838103825285818151815260200191508051906020019080838360005b8381101561013b578082015181840152602081019050610120565b50505050905090810190601f1680156101685780820380516001836020036101000a031916815260200191505b50965050505050505060405180910390f35b60015481565b6000602052806000526040600020600091509050806000015490806001018054600181600116156101000203166002900480601f0160208091040260200160405190810160405280929190818152602001828054600181600116156101000203166002900480156102325780601f1061020757610100808354040283529160200191610232565b820191906000526020600020905b81548152906001019060200180831161021557829003601f168201915b505050505090806002018054600181600116156101000203166002900480601f0160208091040260200160405190810160405280929190818152602001828054600181600116156101000203166002900480156102d05780601f106102a5576101008083540402835291602001916102d0565b820191906000526020600020905b8154815290600101906020018083116102b357829003601f168201915b505050505090806003015490508456fea265627a7a72315820afa752655c54191094cb69c2c8c0ffef0e31869918e8e0b42a48fd237504dd9d64736f6c63430005100032",
  "source": "pragma solidity ^0.5.16;\r\n\r\n/**\r\n * The Election contract does this and that...\r\n */\r\n contract Election {\r\n  //Model a condidate\r\n  struct Candidate {\r\n  \tuint id;\r\n  \tstring name;\r\n  \tstring party;\r\n  \tuint voteCount;\r\n  }  \r\n  //Store a condidate\r\n  //Fetch a condidate\r\n  mapping(uint => Candidate) public candidates;\r\n  //Store a condidate\r\n  uint public candidatesCount;\r\n  constructor() public {\r\n  \taddCandidate(\"Narendra modi\", \"BJP\");\r\n  \taddCandidate(\"Rahul Gandhi\", \"Congress\");\r\n  \taddCandidate(\"Arvind kejriwal\", \"AAP\");\r\n  }\r\n\r\n  //fuction for adding candidate in map list\r\n  function addCandidate (string memory _name, string memory _party) private {\r\n  \tcandidatesCount ++;\r\n  \tcandidates[candidatesCount] = Candidate(candidatesCount, _name, _party, 0);\r\n  }\r\n}\r\n\r\n",
  "sourcePath": "D:/Test/Blockchain/election/contracts/Election.sol",
  "compiler": {
    "name": "solc",
    "version": "0.5.16+commit.9c3226ce.Emscripten.clang"
  },
  "schemaVersion": "3.0.21",
  "updatedAt": "2020-01-22T17:38:15.688Z",
  "networkType": "ethereum",
  "devdoc": {
    "methods": {}
  },
  "userdoc": {
    "methods": {},
    "notice": "The Election contract does this and that..."
  }
}